:104000000000032091D900007DD900007DD9000077
:104010007DD900007DD900007DD90000000000009E
:104020000000000000000000000000007DD900003A
:104030007DD90000000000007DD9000001DA0000F9
:104040007DD900007DD900007DD900007DD9000018
:104050007DD900007DD900007DD900007DD9000008
:104060007DD900007DD900007DD900007DD90000F8
:104070007DD900007DD900007DD900007DD90000E8
:104080007DD900007DD900007DD900007DD90000D8
:104090007DD900007DD900007DD900007DD90000C8
:1040A0007DD900007DD900007DD900007DD90000B8
:1040B0007DD900007DD900007DD900001556000093
:1040C0001556000015560000155600001556000044
:1040D0007DD900007DD900007DD900007DD9000088
:1040E0007DD900007DD900007DD900007DD9000078
:1040F000000000007DD900007DD900007DD90000BE
:104100007DD900007DD900003DB8000049B800000D
:104110004DB8000051B8000055B8000061B800006B
:1041200065B8000069B8000089520000955200008F
:10413000995200009D520000A1520000AD520000B3
:10414000B1520000B55200007DD900007DD90000B9
:104150007DD900007DD900007DD900007DD9000007
:104160007DD900007DD900007DD900007DD90000F7
:104170007DD900007DD90000000000000000000093
:1041800081D9000013DA000017DA00001BDA000002
:10419000000000007DD900007DD900007DD900001D
:1041A0007DD900007DD900007DD900007DD90000B7
:1041B0007DD900007DD900007DD900007DD90000A7
:1041C0007DD900007DD900007DD900007DD9000097
:1041D0007DD900007DD900007DD900007DD9000087
:1041E0007DD900007DD900007DD9000000000000CD
:1041F0007DD900007DD900007DD900007DD9000067
:104200007DD900007DD900007DD900007DD9000056
:104210007DD900007DD900007DD900007DD9000046
:104220007DD900007DD900007DD900007DD9000036
:104230007DD900007DD900007DD900007DD9000026
:104240007DD900007DD900007DD900007DD9000016
:104250007DD900007DD900007DD900007DD9000006
:104260007DD9000010B5054C237833B9044B13B148
:104270000448AFF300800123237010BDA00200208A
:1042800000000000848A010008B5034B1BB10349FC
:104290000348AFF3008008BD00000000A402002026
:1042A000848A010010B5044B044640F8BC3B01F081
:1042B000CFFF204610BD00BF7873010030B5C04C61
:1042C000C04887B0002105F0F1FA2578002D00F0F4
:1042D0003381BD4903A809F0D6FABC4AB94803A9FD
:1042E00007F09EF803A809F089FA00224FF6E07162
:1042F000B44805F03FFB0A232D22B549B14806F02A
:10430000F9FDB04806F0E6FA0221AE4805F028FBB8
:10431000002240F2FF71AB4805F02CFB2423282239
:10432000AC49A84806F0E6FD4FF61F0300933E2275
:104330004FF49B730521A34805F044FF40F2FF733F
:10434000009340224FF49B7305219E4805F03AFFED
:104350002578002D00F001819B4903A809F093FA0C
:104360009A4A984803A907F05BF803A809F046FAAF
:1043700000221F21934805F0FDFA50230822964998
:10438000904806F0B7FD8F4806F0A4FA02218D4848
:1043900005F0E6FA00221F218A4805F0EBFA5023C7
:1043A00070228E49874806F0A5FD00224FF6FF7166
:1043B000844805F0DFFA5023F5228949814806F048
:1043C00099FD2578002D00F0D8807F4903A809F0D9
:1043D0005AFA7E4A7B4803A907F022F803A809F09D
:1043E0000DFA00224FF4FC61764805F0C3FA7823F9
:1043F00008227C49734806F07DFD724806F06AFA8F
:104400000221704805F0ACFA00224FF4FC616D48BF
:1044100005F0B0FA7823702273496A4806F06AFD05
:1044200000224FF6FF71674805F0A4FA7823F522C1
:104430006B49644806F05EFD2578002D00F0AE80E3
:10444000614903A809F01FFA604A5E4803A906F013
:10445000E7FF03A809F0D2F900224FF47841594848
:1044600005F088FAA02308226049564806F042FD6C
:10447000544806F02FFA0221524805F071FA002242
:104480004FF478414F4805F075FAA023702258493F
:104490004C4806F02FFD00224FF6FF71494805F009
:1044A00069FAA023F5224E49464806F023FD4CF256
:1044B00018630093C0224FF49B730521414805F017
:1044C00081FE4FF61F030093C2224FF49B73052118
:1044D0003C4805F077FE2478002C00F0998045498F
:1044E00003A809F0D0F9394A364803A906F098FF25
:1044F00003A809F083F900224FF6E071314805F076
:1045000039FAC82376223C492E4806F0F3FC2D48A0
:1045100006F0E0F901212B4805F022FA00224FF4C1
:10452000FC61284805F026FADA236C223349254835
:1045300006F0E0FC07B030BD0221224805F010FA79
:104540002A464FF6E0711F4805F014FA0A231E228E
:104550002B491C4806F0CEFCD6E60221194805F08E
:10456000FFF92A461F21174805F004FA50230822B4
:104570002449144806F0BEFC08E70221114805F062
:10458000EFF92A464FF4FC610E4805F0F3F9782361
:1045900008221D490B4806F0ADFC31E7022109480D
:1045A00005F0DEF92A464FF47841064805F0E2F9B5
:1045B000A02308221549034806F09CFC5BE700BFD6
:1045C000C0020020F803002056360100E40B002052
:1045D00065360100C5360100DA360100FC360100FF
:1045E00000370100063701002A3701002E3701008D
:1045F000573701005B3701006A3701009637010029
:10460000AE360100F33601001F3701004D370100BF
:104610000121084805F0A4F922464FF6E07105484B
:1046200005F0A8F9CA2370220349024806F062FC8B
:1046300070E700BFF80300208737010070B54FF422
:10464000E131C8B04448454C07F042FE444800F010
:10465000A7FC0121022009F099FC0121084609F07C
:1046600095FC0121002009F091FC0021022009F0B5
:10467000D1FC0021012009F0CDFC0021084609F001
:10468000C9FC02211C2009F081FC02211D2009F037
:104690007DFC02211E2009F079FC0021314805F043
:1046A00003F903212F4804F063FE00212D4805F093
:1046B000FDF82D4B2D4A2E48402100F0C2FF054643
:1046C00000283DD02B49244807F070F901232A4ADD
:1046D000237027493223684601F038FE694627488F
:1046E00001F018FE684601F0B3FD244801F007FE12
:1046F00030B12349214807F059F9204801F0D7FD8E
:10470000174A2048204D292106F03BFF0646E8B114
:104710001E49114807F04AF901232B7023785BB139
:104720001B49134801F076FE30B11A4B1A490A486A
:1047300001221A7007F03AF9FFF7C0FD48B070BDCA
:104740001649054807F032F92570D9E7144902489F
:1047500007F02CF92E70E1E740220020C102002072
:10476000DC050020F803002000093D00CC0A0020F1
:10477000E40B00207638010099380100D0020020B7
:10478000A1380100F0030020C2020020E13801003E
:104790001F390100C002002033390100B238010086
:1047A000F73801002DE9F04F2DED068B1C20DBB012
:1047B00009F05AFC10F1000804464FF01D0018BF24
:1047C0004FF0010809F050FC071C82464FF01E0014
:1047D00018BF0127C94D09F047FC2B78061C8146FC
:1047E00018BF0126CBB1C4B9C54C2178022081F095
:1047F0000101217009F00EFCC249C34807F0BEF860
:104800002178C24AC24BC04800290CBF1146194644
:1048100007F0CCF81E2009F049F9BE4C2378FBB113
:10482000BAF1000F1CD1DFF858A39AF8001001204C
:1048300081F001018AF8001009F0ECFBB649B2489A
:1048400007F09CF89AF80010B04AB14BAE48002926
:104850000CBF1146194607F0A9F81E2009F026F9E9
:10486000AE4B1A789B46FAB1B9F1000F1CD1DFF8B4
:1048700014A39AF80010484681F001018AF800104C
:1048800009F0C8FBA649A04807F078F89AF800108C
:104890009E4A9F4B9C4800290CBF1146194607F0C1
:1048A00085F81E2009F002F985F8008027708BF842
:1048B000006009F0BBF89B4A1368C31AB3F57A7F0E
:1048C00005463AD3984E10603368984F01333B2B1E
:1048D000336004DD3B680022013332603B603B689B
:1048E000934C3B2B04DD2368002201333A602360A4
:1048F00023689048172BC8BF00234FF00101C8BFA1
:10490000236005F02DF800224FF6E071894805F08C
:1049100031F8CA230A228849864806F0EBFA336840
:1049200000933B682268854912A80BF05BFCDA23F0
:104930000A2212A97F4806F0DDFA814A1368EB1AB1
:10494000F92B40F236827F4C1560236801332360D7
:104950000023ADF80830ADF80A30ADF80C30ADF8F2
:104960000E30794B1B780DF10E05DBB103AB0DF169
:104970000A0202A97548009506F02CFE2888BDF8A9
:104980000C30BDF80A20BDF8081000906F4806F002
:1049900053FEBDF80C30BDF80A20BDF808106B4876
:1049A00006F07AFEBDF80820BDF80C00BDF80A102C
:1049B00013180B4407EE903AF8EEE77AF5EEC07A5A
:1049C000F1EE10FA40F3FD8107EE100A9FED605AF8
:1049D000F8EEC76A66EE856A86EEA77A06EE901A4A
:1049E000F8EEE66A66EE856AC6EEA75A06EE902AEB
:1049F000B8EEE66A26EE056AC6EE276ADFED557A5E
:104A00009FED558AA7EE278ADFED547A67EE277A65
:104A1000A7EE278ADFED527A67EE277A67EE877A6C
:104A2000A7EE278AB5EEC08AF1EE10FA00F1D08128
:104A3000DFED4C7AB4EE678AF1EE10FAC8BFB0EE43
:104A4000678ADFED497A9FED499AA5EEA79ADFEDD7
:104A5000487A65EEA77AA5EEA79AB5EEC09AF1EE70
:104A600010FA00F1B881DFED3F7AB4EE679AF1EE0B
:104A700010FAC8BFB0EE679ADFED3E7ADFED3E8AEE
:104A8000E6EEA78ADFED3D7A66EEA77AE6EEA78A24
:104A9000F5EEC08AF1EE10FA00F1A081DFED317A77
:104AA000F4EE678AF1EE10FAC8BFF0EE678A0221D1
:104AB000204804F055FF00224FF6FF711D4804F016
:104AC00059FF18EE100A09F069FD41EC1A0B06AA0D
:104AD000B0EE4A0AF0EE6A0A0221062008F036FF1C
:104AE00050239B2206A9134806F004FA19EE100A77
:104AF00009F054FD41EC190B46E000BF0C0000200A
:104B0000CE020020AE37010040220020AA3701006B
:104B1000A73701000D000020CC3701000E00002057
:104B2000EC370100C8020020BC0200200800002071
:104B300004000020F80300200B38010016380100A3
:104B4000C402002010000020C2020020F003002058
:104B50000000C84277BE0341856B39C355C128BDEB
:104B600041D7BE380000FA43C3F54841142E60C354
:104B7000E78CA8BDA8C6EB3F295C97C124977F3C72
:104B8000CD020020CC02002009AAB0EE490AF0EEC6
:104B9000690A0221062008F0D9FE78239B2209A980
:104BA000A14806F0A7F918EE900A09F0F7FC41ECCD
:104BB000180B0CAAB0EE480AF0EE680A0221062093
:104BC00008F0C4FEA0239B220CA9974806F092F996
:104BD0000121954804F0C4FE944B954A18689B88BF
:104BE000ADF840300023CDF84230924B0F90197849
:104BF000914B12781B78002900F0F380002A40F0D6
:104C00000181002B40F009818C490FA80BF019FBA2
:104C10004FF478410022844804F0ACFECA23F52208
:104C20000FA9814806F066F900224FF6E0717E4830
:104C300004F0A0FE2268824904A80BF0D3FACA232C
:104C400040F2131204A9784806F054F97D497E48D1
:104C500006F094FE0A2221687B4806F0F2FE7B49AA
:104C6000794806F08BFEB0EE4A0AF0EE6A0A02219D
:104C7000754806F0ADFF7649734806F07FFEB0EE4A
:104C8000490AF0EE690A02216F4806F0A1FF714956
:104C90006D4806F073FEB0EE480AF0EE680A022195
:104CA000694806F095FF6C49674806F067FE0A22DE
:104CB000BDF80C10644806F0C2FE6849624806F070
:104CC0005DFE0A22BDF80A105F4806F0B8FE63498F
:104CD0005D4806F053FE0A22BDF808105A4806F057
:104CE000AEFE5F49584806F049FE0FA9564806F047
:104CF0005DFE5C4B1B78002B5BD032235A4A5B492C
:104D000012A801F023FB12A9594801F003FB12A8D5
:104D100001F09EFA564801F0F2FA002849D00A2222
:104D20002168534806F08DFE4C49514806F026FE96
:104D30000A22BDF80C104E4806F081FE47494C4847
:104D400006F01CFE0A22BDF80A10494806F077FE5C
:104D50004249474806F012FE0A22BDF808104448AE
:104D600006F06DFE3D49424806F008FEB0EE4A0AE4
:104D7000F0EE6A0A02213E4806F02AFF37493C4815
:104D800006F0FCFDB0EE490AF0EE690A022138484F
:104D900006F01EFF3149364806F0F0FDB0EE480A35
:104DA000F0EE680A0221324806F015FF304801F0A3
:104DB0007EFA142008F07AFE5BB0BDEC068BBDE8ED
:104DC000F08FDFED2C6AF0EE665AB0EE667A15E6EB
:104DD0009FED288A35E69FED279A4DE6DFED258A7F
:104DE00065E63AB1CBB924490FA80BF02AFA4FF483
:104DF000FC610FE773B121490FA80BF022FA40F2D2
:104E0000FF7107E74BB11E490FA80BF01AFA4FF6D6
:104E1000FF71FFE647F6EF31FCE61A490FA80BF0E9
:104E200010FA4FF6E071F5E6F80300204C36010069
:104E3000CD020020CE020020CC0200202538010047
:104E4000433801004838010040220020503801005A
:104E500054380100583801005C3801006B380100FB
:104E60006D380100C102002099380100E40B0020D8
:104E7000D0020020000000002B3801003138010072
:104E8000373801003D38010038B50E4C0E4D204634
:104E900001F0CCF920460D4C0D492A4609F012FAD2
:104EA0004FF4A072F021204604F0ECF92A4609499B
:104EB000204609F007FA002206210748BDE83840DD
:104EC00006F022BBD002002000000020F8030020E2
:104ED00051620000A5420000F0030020002070474E
:104EE0002DE9F84380460D46174601EB02090C46B2
:104EF0004C45A4EB05060BD0D8F8003014F8011B84
:104F00001B68404698470028F2D13046BDE8F88338
:104F10003E46FAE77047D0F81C21D0F818319A4283
:104F20001DBFD0F81C31C018007E4FF0FF30704715
:104F3000D0F81831D0F81C01181A48BF00F580705D
:104F4000704700002DE9F84300251F464FF47A739F
:104F50000446C0E901534FF48076104B40F8183BEB
:104F600089469046294632460AF0E4F8C4F81851BA
:104F70003246C4F81C51294604F590700AF0DAF85C
:104F8000C4F82052C4F81090C4F8245284F8148055
:104F90006775A5752046BDE8F88300BF5C39010040
:104FA00070B505460C4900690C4E07F0D7F8286922
:104FB00006F006FF287D182404FB006393F908100F
:104FC00009F06AF8687D04FB006494F90810BDE8F4
:104FD000704009F061B800BFA0860100147D010097
:104FE0000023C0F82032C0F82432012380F82812B0
:104FF00083757047D0F80031D0F804210133DBB25B
:105000009A421EBFD0F800218154C0F80031704789
:105010002DE9F041984604461646002392B3C0F8A5
:1050200018310122C0F81C31006906F0FCFE38B3CB
:10503000206906F072FF04F1180701463846FFF7B1
:10504000D9FF0125AE4220690ED006F0D3FE022121
:10505000206906F0D6FE206906F05FFF014638465B
:10506000FFF7C8FF0135EDE706F0BDFEB8F1000F10
:1050700003D00321206906F0C4FEE8B2BDE8F08148
:105080000546FAE71046F9E708B5837D6BB1D0F81D
:105090002032D0F824220133DBB2934205D000F550
:1050A0009070FFF7A7FF012008BD0020FCE7D0F8B3
:1050B0000421D0F800319A421FBFD0F80431C25CFD
:1050C000D0F8043101331DBFDBB2C0F80431104603
:1050D0004FF0FF307047F8B5002204460D46827548
:1050E00090F82812006906F09EFED0B104F5907782
:1050F000D4F82002D4F82462861B48BF06F58076D7
:10510000AEB138462669FFF7D2FFC1B2304606F08D
:10511000C5FE0028ECD12069032106F072FE0320B1
:1051200004E02069032106F06CFE0220F8BD2DB1D9
:105130002069032106F065FE3046F7E72846F5E7CB
:105140000121FFF7C8BF08B51830FFF7B0FF08BD51
:1051500038B50446006906F0BFFE002800F09380D1
:10516000206906F0D0FE002800F08D80206906F04E
:10517000CFFE80B3206906F03DFE0321206906F0D2
:1051800040FE0023C4F82032C4F824320123A37562
:10519000D4F82C3204F5907503B19847206906F0D5
:1051A000A8FE002860D1206906F09EFE0028F5D0F8
:1051B000D4F82032D4F824229B1A48BF03F5807318
:1051C0003BB12846FFF773FFC1B2206906F077FEB6
:1051D000E4E7FF21F9E7206906F00CFE03212069CE
:1051E00006F00FFE04F11805206906F082FEB8B93A
:1051F000206906F083FE98B9206906F075FE002844
:10520000F2D0D4F81831D4F81C2120690133DBB274
:10521000934212D106F0E7FD0321206906F0F1FD6B
:10522000206906F066FEB0B1D4F830522DBB0023E1
:10523000C4F81831C4F81C3112E006F06EFE0146C5
:105240002846FFF7D7FE206906F0D4FD0321206928
:1052500006F0D7FDC8E7206906F050FE0028E3D12C
:10526000206906F046FE70B1206906F0BCFD206999
:105270000321BDE8384006F0C4BD236820461B6901
:105280009847A847D3E738BD0148FFF761BF00BF83
:10529000DC050020FFF7F8BFFFF7F6BFFFF7F4BF0C
:1052A0000148FFF755BF00BF10080020FFF7F8BF07
:1052B000FFF7F6BFFFF7F4BF10B52D232E220649E6
:1052C0000648FFF73FFE4D234E2205490548BDE83D
:1052D0001040FFF737BE00BF04220020DC0500208D
:1052E0001022002010080020F8B5044610300D46AA
:1052F00017461E4600F04CF904F1240000F048F96E
:105300000020C4E90E0084F8400060722DB90A4BF9
:105310000A4A0B48222109F061FE9DF8183063719A
:105320009DF81C30E3719DF8203025602771A6712F
:1053300023722046F8BD00BF78390100ED39010025
:1053400089390100437A23B98372C372C360012390
:10535000437270471FB5044604AB006803E90600BA
:1053600006F0ECFC9DF80D30227AE179009320687C
:10537000002306F0CFFE2068029A9DF80C1006F07C
:1053800000FD206804B0BDE8104006F0CDBC000070
:1053900070B50546FFF7D6FF0F4E0079182404FBC1
:1053A000006393F9081008F077FEA87904FB006306
:1053B00093F9081008F070FE687904FB006494F912
:1053C000081008F069FE054B284693E80600BDE882
:1053D0007040FFF7BFBF00BF147D0100540B0020D9
:1053E00017B4837A6C4684E8060043B19A070DD55A
:1053F000EFF31083B3FA83F35B09C37272B694E8D8
:10540000060003B05DF8044BFFF7A4BFDB0742BF03
:10541000014B8289DA60F2E700280040837A53B1B9
:105420009A0703D5C37A33B162B67047DB0742BF30
:10543000014B82891A61704700280040006806F01D
:105440008DBCF8B5064600680C460D4606F081FC9A
:1054500001284FEA1427E4B20DD121463046FFF768
:10546000EDFF394660F307053046FFF7E7FF60F3CD
:105470000F25A8B2F8BD39463046FFF7DFFF2146B9
:1054800060F30F253046FFF7D9FF60F30705F0E71B
:1054900070B505460C468E18B44206D021782846D1
:1054A000FFF7CCFF04F8010BF6E770BD30B5194BE0
:1054B000194A1A6085B000255D711D7102243023E0
:1054C0000093CDE9015431232F2214491448FFF7EA
:1054D0000BFF55230093CDE9015456235422114963
:1054E0001148FFF701FF3E230093CDE901543F230C
:1054F0003D220E490E48FFF7F7FE43230093CDE906
:105500000144442342220B490B48FFF7EDFE05B04E
:1055100030BD00BF540B002000093D001C220020BC
:10552000440A0020E0210020880A002028220020D0
:10553000CC0A002034220020100B0020084B1868F1
:1055400040B9EFF31082074942B972B6BFF35F8FDB
:1055500001220A701A6801321A6070470870F9E770
:10556000600B00205C0B0020074B1A6852B11A68D0
:10557000013A1A601B682BB9044B1B7813B1BFF3B7
:105580005F8F62B6704700BF600B00205C0B00208D
:10559000FF2202700321002242708270C2700271E9
:1055A00041718260C26002617047000010B4184B04
:1055B00003EB011191F84E10C9B211F001040CD0A7
:1055C000017803EB0113012183F84E10042343708B
:1055D0008368D3B15DF8044B184711F0020F08D06F
:1055E000017803EB0113022183F84E10C368447065
:1055F000EFE7490709D5017803EB0113042183F88C
:105600004E10072343700369E3E75DF8044B7047CE
:1056100000A0004108B5FFF791FF074B198C074B1D
:1056200001F01F0153F8210008B1FFF7BFFFBDE8EB
:105630000840FFF799BF00BF00A00041640B0020A5
:10564000704770B5164604461A460846314600F0C3
:10565000F5FC41F24C0560553046FFF799FE635D5D
:1056600041F24D013033635401222144204602F0BF
:10567000CBFDB0FA80F0400970BD00000748084932
:1056800041F24C0341F24D02C35C3033835441F28A
:105690004E033A22C254034A08F014BEE40B002021
:1056A0004156000000000020024B53F82030187EC5
:1056B000704700BF341C002013B504460160D1E9D7
:1056C0000103009300238DF805308DF8043002AB00
:1056D00013E90600FFF784FE204602B010BD10B5A6
:1056E000036804465868FFF799FE204610BD000085
:1056F0002DE9F04107460D4608F098F9DFF82880BB
:10570000064658F82730FF215868FFF797FE0446F1
:1057100020B908F08BF9801BA842F2D3201C18BFD7
:105720000120BDE8F08100BF341C0020034B53F87A
:105730002030FD215868FFF781BE00BF341C0020D7
:10574000034B53F820300121187808F063BC00BFE8
:10575000341C002010B5074B53F8203004460021BC
:10576000187808F057FC4FF496712046FFF7C0FFF9
:10577000012010BD341C002013B50446032927D88E
:10578000DFE801F0021A2024124B53F8201001A880
:10579000FFF792FF2046FFF7DDFF38B12046FFF705
:1057A000CFFF01A8FFF79BFF002003E001A8FFF750
:1057B00096FF012002B010BD064B53F820301B6944
:1057C0001360F1E74FF400731380EDE70123F7E76F
:1057D0000420EFE7341C00201B4B2DE9F0410D465F
:1057E000174653F8206008F021F90446FF2170683D
:1057F000FFF724FEFF2808D108F018F9001BB0F5C8
:10580000FA7FF3D30020BDE8F081FE28FAD12C46C0
:1058100005EB07084445706805D2FF21FFF70EFE2F
:1058200004F8010BF6E74FF6FF71FFF70AFE337D30
:1058300004463BB13946284600F04AFC031B584257
:105840005841E0E70120DEE7341C0020194B2DE928
:10585000F04153F82040237D06460D4690462BB379
:105860004FF40071284600F033FC07464FF4FA71FC
:105870003046FFF73DFFB8B141466068FFF7DEFDF7
:105880006E1E05F2FF1516F8011F6068FFF7D6FDC2
:10589000AE42F8D139466068FFF7D3FDFF2160685A
:1058A000FFF7CCFD00F01F00BDE8F0814FF6FF7759
:1058B000DCE700BF341C00202DE9F04F1E46554B9D
:1058C00089B053F82070130E0093C2F307430C29DC
:1058D0000193C2F307230293A1F1160A0CBF072319
:1058E00006230393A1F1290B5FFA8AF305460C46C0
:1058F00090464FF0030904935FFA8BFB049B012B46
:1059000044D9BBF1010F41D944F040038DF8183060
:105910009DF800308DF819309DF804308DF81A305C
:105920009DF808308DF81B303B7D8DF81C80002BD6
:1059300044D0052106A800F0B9FB400040F001006A
:105940008DF81D00FF238DF81E30039A786806A994
:10595000FFF79EFD0922FF2178680592FFF76EFD93
:1059600010F0800F824630D0059A013AF3D1FF281B
:105970002BD12846FFF7E4FE642008F097F828466C
:10598000FFF7E8FEB9F1010914D0B7E700231A4682
:1059900037212846FFF790FF82462846FFF7D0FEC2
:1059A000BAF1010F06D82846FFF7D4FE0028ABD184
:1059B0004FF0FF0A504609B0BDE8F08F14F0F70F22
:1059C000B7D001238DF81D30BCE71AF0080FD0D1F5
:1059D000BAF1010FEED80D2C07D1002EEAD0FF212D
:1059E0007868FFF72BFD3060E4E7082C01D03A2CF3
:1059F000E0D1002EDED00424FF217868FFF71EFDE1
:105A00003268013C00EB022014F0FF043060F3D157
:105A1000D0E700BF341C0020F8B505460C461646FA
:105A20001F46FFF797FE58B121463B4632462846AF
:105A3000FFF742FF04462846FFF782FE2046F8BDE6
:105A4000FF24FBE72DE9F047DFF858A0044689461C
:105A500017464FEA422803262046FFF77BFEC8B1CF
:105A60005AF824301A7B11210023032A14BF42461E
:105A70003A462046FFF720FF60B94FF400724946CE
:105A80002046FFF7A9FE05462046FFF759FE2DB92F
:105A9000013EE1D12046FFF753FE00252846BDE830
:105AA000F08700BF341C00202DE9F74F0C9DDFF874
:105AB00098B004468A4616461F464FF00008204616
:105AC000FFF748FE814670B35BF8243001961B7BDC
:105AD000032B14BF72023246002312212046FFF727
:105AE000EBFE00BB019B1D44AB1B4FF40072514603
:105AF00020460193FFF770FE019BD0B908F1010821
:105B00001D4600231A460C212046FFF7D5FE50B94A
:105B10002046FFF715FE1DB9484603B0BDE8F08FDB
:105B2000B8F1030FCBD12046FFF70AFE4FF0000972
:105B3000F2E7013647F10007B5420AF5007A4FF067
:105B40000008D1D14546DCE7341C00202DE9FF4197
:105B50009846154B0E4653F820100546886910F0FC
:105B6000010417461ED103A8FFF7A6FDB8F1010FE7
:105B700011D9CDF800803A46234631462846FFF732
:105B800093FF80F00100C4B203A8FFF7A8FD2046F0
:105B900004B0BDE8F0813A46234631462846FFF777
:105BA00051FFEEE70324F2E7341C00202DE9F74F04
:105BB000DFF878B004468A4690464FEA422903252A
:105BC0002046FFF7C7FDD0B15BF824301A7B1821BF
:105BD0000023032A14BF4A4642462046FFF76CFEC4
:105BE000064660B9FE2251462046FFF72FFE0746C3
:105BF0002046FFF7A5FD0A2F05D1013DE0D1204643
:105C0000FFF79EFD01E00C2F01D100200BE001AB5E
:105C100032460D212046FFF7FFFE0028F5D10198FE
:105C2000B0FA80F0400903B0BDE8F08F341C0020CA
:105C30002DE9F04F85B0CDE900234B4B0E9C53F876
:105C400020A0DDE9008905468B460F4600269AF81C
:105C50000C30012B08D12846FFF77CFD68B9284697
:105C6000FFF76EFD002439E0002322461721284665
:105C7000FFF7D2FE0028EED0F1E79AF80C30032BA4
:105C800042464FF0000318BF4FEA48221921284628
:105C9000FFF712FE0028E2D1FC2239462846FFF722
:105CA000D5FD052880461DD001364FF4FA712846EF
:105CB000FFF71EFD0028D2D0E4B92846FFF736FDD5
:105CC0002846FFF73DFD03AB22460D212846FFF78E
:105CD000A3FE18B9039CB4FA84F46409204605B005
:105CE000BDE8F08F013C07F500774FF00006D3D1F7
:105CF0002646DAE700231A460C212846FFF7DCFD8A
:105D000004460028ABD12846FFF71AFDB8F10A0F68
:105D1000E4D19AF80C30012B0CD10024DDE9008984
:105D20000E9B18EB0408032E0BEB4427A3EB040493
:105D30008DD194E72846FFF70DFD0028EDD02346CE
:105D4000224616212846FFF7B7FD38B9042203A9D9
:105D50002846FFF741FD28B1039C24BA2846FFF7E7
:105D6000EFFCDBE70446F9E7341C00202DE9FF4196
:105D70009846174B0E4653F820108C69E3070546EA
:105D8000174621D414F0040420D103A8FFF794FC93
:105D9000B8F1010F11D9CDF800803A4623463146BB
:105DA0002846FFF745FF80F00100C4B203A8FFF7C3
:105DB00096FC204604B0BDE8F0813A4623463146C1
:105DC0002846FFF7F3FEEEE70324F2E70224F0E7AC
:105DD000341C00207FB5044603252046FFF7BAFC9B
:105DE000002843D000231A4609212046FFF764FD0E
:105DF000E0BB102269462046FFF7EEFC064620462F
:105E0000FFF79EFC86B39DF800009DF807309DF8D3
:105E100008109DF80920801101280BD11804BDF845
:105E200008305BBA00F47C109BB21843013080024A
:105E300004B070BD9DF806008909800241EA830321
:105E400000F44060184353009DF80A2003F0060355
:105E500043EAD2130233013098409DF8053003F035
:105E60000F039840400AE3E7013DB6D12046FFF713
:105E700067FC0020DCE700006D4BF0B553F82040D4
:105E8000A3690546D80785B003D4DCB2204605B027
:105E9000F0BD684B6068029300238DF80D308DF8DB
:105EA0000C3002AF97E806000194FFF799FA012140
:105EB000207808F0AFF81426FF216068013EFFF754
:105EC000BDFA16F0FF06F7D1334632463146284672
:105ED000FFF7A2FD012837D1334632463B21284641
:105EE000FFF79AFD00F0FB0001282DD126753B46F7
:105EF0004FF4D57208212846FFF78EFD01284CD1BA
:105F0000029BC3F30B03B3F5D57F1DD13B4632464D
:105F10003A212846FFF780FD012815D1029BD902BE
:105F200012D507F083FD06464FF080420023292159
:105F30002846FFF771FD0128024609D107F076FDDA
:105F4000801BB0F57A7FEFD304232373247E20E0F7
:105F50000028F9D13B463A212846FFF75DFD00288D
:105F6000F2D1029B5A0049D503232373237B012BD3
:105F700046D1237B032B4CD12846FFF72BFF2E4B1A
:105F8000A26820619A424EDCA36923F00103A36159
:105F9000DCB201A8FFF7A3FB78E73B4632463A2183
:105FA0002846FFF739FD0128CED1029BDB02CBD575
:105FB00007F03CFD064600234FF4801229212846B5
:105FC000FFF72AFD012817D107F030FD801BB0F53F
:105FD0007A7FF0D307F02AFD064600234FF48012A3
:105FE00001212846FFF718FDF8B107F01FFD801BBF
:105FF000B0F57A7FF1D3A7E70028EBD10223B4E70D
:1060000000231A462A212846FFF706FD00289BD1C7
:10601000AFE700234FF4007210212846FFF7FCFC85
:10602000002891D1A8E7A360AEE701239DE700BF58
:10603000341C0020801A060040787D012DE9F743CA
:10604000064602A8FF2500F8015D8846914600F04B
:106050005DFA07469DF80700FFB9A8421DD01C2035
:1060600009F022F80446D8B10125C0E9018906707B
:106070000575077385612946304607F087FF294675
:10608000207807F0C7FF9DF80700064B064943F844
:10609000204000F049FA9DF8070003B0BDE8F08306
:1060A0002846FAE7341C0020443A010030B5074D79
:1060B00002460023141AA14201DC184630BD12F832
:1060C000014B84EA4303EB5CF4E700BF583C01005A
:1060D00030B5094D02460023141AA14201DC1846CE
:1060E00030BD12F8014B84EA132435F8144084EAD9
:1060F00003239BB2F0E700BF583A010013B502AB8F
:10610000026803F8011D546819460122A04702B035
:1061100010BD30B5D0F8140140B1D0E90C45D0E93C
:1061200004239D420ABF94420120002030BD07B5E0
:10613000D0F8140118B9002003B05DF804FB01ABDE
:1061400002F000FB0028F6D10198F5E7D0F8140121
:1061500008B102F0F4BB704770B5D0F814410546A1
:106160007CB103685B699847431C044609D0D5F8A5
:106170001401D0E90C5615F1FF3246F1FF3302F05D
:1061800085FC204670BD000082B073B541F2500618
:1061900006A981E80C008B59019300254FF47A730E
:1061A000C0E901530D4B03600446304607F0CAFCBA
:1061B000324606A908F09AFFC4F81851C4F8140131
:1061C000019904F110000AF03CF82046C4F81C5173
:1061D00002B0BDE8704002B0704700BF603D0100F2
:1061E00082B038B504A981E80C0000254FF47A7319
:1061F000C0E901530C4B03600446502007F0A2FC99
:1062000004A9502208F072FFC4F81451C4F8180110
:10621000189904F110000AF014F82046C4F81C5133
:10622000BDE8384002B07047603D010000224FF4E5
:106230007A71C0E9012105490160C0F81421C0F854
:1062400018210274C0F81C21704700BF603D010096
:10625000704707B5D0F8140118B9002003B05DF8F5
:1062600004FB01AB02F08DF90028F6D10198F5E7A7
:1062700007B5D0F8143123B94FF0FF3003B05DF803
:1062800004FB01220DF10701FFF7E3FF0128F3D121
:106290009DF80700F2E708B5D0F814010A4628B1C6
:1062A000002302F0F3FB003018BF012008BD10B539
:1062B0000446D0F8180148B102F0F6FD5021D4F898
:1062C000180108F004F80023C4F81831D4F81401B8
:1062D00050B102F0CEFB41F25001D4F8140107F0A6
:1062E000F6FF0023C4F81431D4F81C0130B14FF488
:1062F000907107F0ECFF0023C4F8143110BDD0F802
:1063000014312BB9D0F81801003018BF01207047A4
:1063100001207047884238B504460D4613D0FFF778
:10632000C6FFD5F81431C4F81431D5F81831C4F8C3
:106330001831D5F81C31C4F81C3105F1100104F1F5
:10634000100009F07EFF204638BD00002DE9F04125
:106350000646ADF5075D1F4612B9FFF767FF2BE054
:1063600041F24C002A4D085C3A2169702F213030EF
:10637000A97000212870E9702846114609F052FFE3
:10638000EA780DF58B5410341AB12F2A19D12B79D4
:10639000BBB91F49204602F02CFDB0BB0DF58C5354
:1063A0004822A3F108016846129508F09FFE94E880
:1063B0000C003046FFF714FF30460DF5075DBDE8D1
:1063C000F0810DF5825808F110084146104802F09E
:1063D00074FD18B998F80C30DB06DAD43A460C494B
:1063E000204601F039FF80B90DF58C5341F2480287
:1063F000A3F1080168464DF8025008F077FE94E8D2
:106400000C003046FFF7C0FED6E73046A5E700BFD8
:106410003C1C002000B541F24C020B4B825C303238
:106420001A703A225A702F22C9B09A701846002268
:10643000DA7009F0F7FE694602F03FFDB0FA80F02D
:10644000400949B05DF804FB3C1C00207F2810B5D2
:1064500006D931B1FF2812D880380A4B33F8100022
:1064600010BD084A32F8114084428BB203D001318A
:106470008029F7D10B4603F18000C0B2F0E700207D
:10648000EEE700BF7C3D010070B51E4B1E4AB0F523
:10649000805F28BF1346191D31F8043C0A46A3B19A
:1064A000984212D331F8024C250AE4B2E618B04201
:1064B00021DA082D09D8DFE805F005090F111315B9
:1064C00017191B00C01A31F8100070BDC31A03F071
:1064D0000103C01A80B2F8E71038FBE72038F9E76B
:1064E0003038F7E71A38F5E70830F3E75038F1E7C6
:1064F000A0F5E350EEE70431002DCDD102EB4403CB
:10650000C9E700BF7C3E01006E400100054A1368E8
:1065100013B153681BB90123037000207047012099
:10652000704700BF401D00200128F8B506460C4604
:1065300005D9154B154A2921154808F04FFD154D71
:1065400055F8200020B1002345F8263008F0B4FDAE
:10655000C4B1142008F0A8FD074618B90E4B0B4A29
:106560003621E9E72346024604F1100C1868596801
:10657000144603C4083363452246F7D118682060E7
:1065800045F82670F8BD00BF3D4101002A410100D9
:106590004D410100401D0020A2410100024B53F873
:1065A00020301B68184700BF401D0020024B53F8E5
:1065B00020305B68184700BF401D002010B4044C19
:1065C00054F82040A468A4465DF8044B604700BF1F
:1065D000401D002010B4044C54F82040E468A44648
:1065E0005DF8044B604700BF401D0020024B53F88C
:1065F00020301B69184700BF401D002042884378A7
:10660000007843EA022340EA032070472DE930482E
:106610004168C4780B0E00250A0245EA030C44EADF
:10662000020B4FEA0C23847843EA1B63002545EAFA
:10663000030C4FEA0B2244EA020B4FEA0C23447886
:1066400043EA1B63002545EA030C4FEA0B2244EAA8
:10665000020B4FEA0C23047843EA1B634FEA0B2238
:10666000002544EA020045EA0301BDE830880B0A30
:10667000017043700B0C090E8370C1707047110AD2
:1066800002704170110C120EC2701A0A037142712D
:106690001A0C1B0E81708271C3717047024400F89E
:1066A000011B9042FBD17047036B0239023B8B42C6
:1066B00083BF4389406C01FB030000207047F8B59D
:1066C0000568846C16461F46AA8900233046394661
:1066D00008F004FB6A890023043408F0FFFA2368F9
:1066E00033B1984202D3C01A0834F8E76368034410
:1066F0001846F8BD024600F10B010020C30143EA31
:10670000500312F8010B50FA83F38A42D8B2F5D144
:10671000704710B541780023013149011A46022A19
:106720001DBF845C04EBC334A4B2032218BF04EB86
:10673000530302F1010218BF9BB29142EFD81846F1
:1067400010BD0000036810B5044653B119460A464F
:1067500011F8010B1F2810D93A28F8D1591C8A4288
:1067600002D04FF0FF3007E01B78303BD9B201294F
:10677000F7D801321846226010BD014B1878FBE7AC
:10678000481D002038B50D46044618B900232B607B
:10679000092038BD0368002BF8D01A78002AF5D0FC
:1067A000D98882889142F1D15878FFF7FFFE10F026
:1067B0000100EBD123682B60EBE738B505460024D8
:1067C00035F8020B08B9204638BDFFF75DFE6308B7
:1067D00003EBC433C2B212FA83F39BB2000A00EB9C
:1067E000530000EBC33084B2EAE701380A4411F8E1
:1067F000013B00F8013F9142F9D17047CA7E8B7E80
:10680000032843EA022301BF487D0A7D42EA0022B1
:1068100043EA024318467047C2F307238A76CB76D1
:106820000378032B01BF120C0A75120A4A757047D0
:10683000F8B5856C00F14C07044601232A46394619
:106840004078FFF7C7FEA0B9E36B626BE070EB1A0C
:10685000934201D30020F8BDA678012EFAD9636BCC
:1068600060781D442A4601233946FFF7B3FE013EF6
:10687000F3E70120EFE7C3780BB1FFF7D9BF184664
:106880007047836C8B4270B506460D4612D0FFF7F9
:10689000F2FF044660B92A46012306F14C017078E4
:1068A000FFF78CFE00281CBF4FF0FF350124B564B4
:1068B000204670BD0024FBE72DE9F84F036B8F1EC7
:1068C000023BBB4298BF0027054691463E463C46E8
:1068D0004FF000084FF0010A696CAB894FEAD40B06
:1068E0002846BBFBF3F31944FFF7CBFF78BBB5F8A1
:1068F0000CC02A6BBBFBFCF004F007030AFA03F39D
:106900000CFB10B0DBB2023A2918013491F84C109C
:10691000A24201EA030193BF00245B00DBB24FF403
:10692000805098BF234631B908F10108C84505D108
:10693000B01CBDE8F88F26464FF00008A74209D0EA
:10694000002BE1D101308445C6D90123DCE74FF0AB
:10695000FF30EEE70020ECE72DE9F0478C1E1746EC
:106960009846E2088389416CB2FBF3F504F0070412
:106970004FF0010909FA04F42944064603FB1525E2
:10698000E4B2304601F1010AFFF77BFF18B10120A4
:10699000BDE8F0871D46721992F84C30234214BFAF
:1069A00001210021414514D06340013F82F84C3061
:1069B00086F80390ECD0640014F0FF04EBD1B289A8
:1069C0006B1C9A424FF001044FF000055146E1D88C
:1069D000D7E70220DCE701292DE9F0410D4640F21E
:1069E000AB800468236B8B4240F2A6802378013B86
:1069F000032B00F2A180DFE803F002334C6501EBCA
:106A00005106E16BA389B6FBF3F320461944FFF767
:106A100038FF18B14FF0FF30BDE8F081A189E36B7A
:106A2000B6FBF1F201FB12622244771C2046B7FB51
:106A3000F1F1194492F84C60FFF723FF0028E9D1E7
:106A4000A289B7FBF2F302FB13731C44EB0794F823
:106A50004C0046EA00204CBF0009C0F30B00DBE706
:106A6000A3895B08B1FBF3F3E16B20461944FFF700
:106A700008FF0028CED1A1896D0004F14C02B5FBBE
:106A8000F1F301FB1353D118D05C4D7840EA052097
:106A9000C2E7A3899B08B1FBF3F3E16B20461944DD
:106AA000FFF7EFFE0028B5D1A289AD0004F14C003C
:106AB000B5FBF2F302FB13552844FFF79FFD20F0CE
:106AC0007040A9E7D0E9046756EA070334D0836829
:106AD000A289A1EB0308C379022B0FD116F1FF3075
:106AE0004FF0000347F1FF3108F0F8F86389B0FB7D
:106AF000F3F0804520D821D0681C8DE7032B02D10C
:106B000083694345F8D8E16B92082046B5FBF2F261
:106B10001144FFF7B6FE00287FF47CAFA289AD00D8
:106B200004F14C00B5FBF2F302FB13552844FFF7C8
:106B300065FD20F000406FE701206DE76FF0004039
:106B40006AE7F8B504682378042B0CBF4FF0805235
:106B50004FF400128A4205460E4601D80220F8BDC5
:106B6000CA06FBD18268A9623ABB022B15D82389D9
:106B7000B3EB561FF2D9236C2B63EA622A6B002A0F
:106B8000ECD0A189B6FBF1F34C3401FB13661A4437
:106B900034442A636C630020E1E7236CC271002B4C
:106BA000E5D06289A78957431A46BE42114606D2EC
:106BB0002046FFF779FD2863DFE71346F1E7284613
:106BC000FFF709FF431C024606D00128C6D9236BF4
:106BD0008342C3D9F61BE8E70120C0E701292DE96C
:106BE000F04704460D46164640F29180036B8B42F7
:106BF00040F28D800378013B032B00F28880DFE8B0
:106C000003F00248616101EB510AC16B8389BAFB51
:106C1000F3F31944FFF735FE074678BBA389BAFBA7
:106C2000F3F204F14C0803FB12A215F001051FBF9B
:106C300018F8023003F00F01330103F0F00314BF22
:106C40000B43F3B208F80230E16B0123E3700AF161
:106C50000109A389B9FBF3F320461944FFF711FE9C
:106C6000074658B9A289B9FBF2F302FB139345B169
:106C7000C6F3071608F803600123E3703846BDE841
:106C8000F08718F80320C6F3032622F00F021643FC
:106C9000F0E783895B08B1FBF3F3C16B1944FFF79D
:106CA000F0FD07460028E9D1A1896D0004F14C02EE
:106CB000B5FBF1F301FB135553195655C6F30726DF
:106CC0005E70D9E783899B08B1FBF3F3C16B19446C
:106CD000FFF7D7FD07460028D0D1A189AD0004F108
:106CE0004C03B5FBF1F201FB12521D462378042B35
:106CF000154407D02846FFF781FC26F0704600F0C7
:106D00007040064331462846FFF7B1FCB4E702273E
:106D1000B4E72DE9F041074605688846002932D1DD
:106D2000AE69002E40D02B6BB34298BF01262B7862
:106D3000042B46D1012231462846FFF7BDFD431EF4
:106D40000333044628D8012301461A462846FFF794
:106D500003FE02285FD001281CD0B8F1000F25D116
:106D60000223FB712B78042B42D1FB79022B3FD1FC
:106D70002A6BEB69AC61023A93424ED32B7943F014
:106D800001032B7108E0FFF726FE0128044642D9D3
:106D9000431C04D14FF0FF342046BDE8F0812B6B3B
:106DA0008342F9D84646C2E70126C0E7FB79022BA9
:106DB000D8D1731CA342D5D0BB68F61ABE61032399
:106DC000CFE734462B6B0134A34204D8012E01D8FF
:106DD0000024E1E7022421463846FFF7FCFD0028A5
:106DE000C0D0012817D00130D4D0B442EAD1EFE7A7
:106DF0004FF0FF3221462846FFF7F0FE48B9B8F1C0
:106E0000000FB5D0224641462846FFF7E7FE00288E
:106E1000AED00128BED00124BEE7013BEB61ADE757
:106E200001292DE9F84306460D46174602D80220EF
:106E3000BDE8F8830468236B8B42F8D972BBA9467E
:106E400029463046FFF7C7FD804600B30128EED043
:106E5000B0F1FF3F4DD02378042B2ED1226BE36994
:106E6000023A934231D36A1C42450CD02378042B5A
:106E700008D10023A2EB090249462046FFF76CFD2A
:106E80000028D5D1C146236B43454546D8D8237841
:106E9000042B01D107BBF7710020C9E72378042B2D
:106EA00002D1C379022BCAD04FF0FF3239462046B7
:106EB000FFF794FE0028C2D0BAE7002229462046F8
:106EC000FFF78CFE0028C9D0B2E70133E3612379D4
:106ED00043F001032371C6E7F379032BDCD1B368D8
:106EE000BB42D9D8B2691344BB42D5D30223F37154
:106EF000D2E701209CE770B5C379032B044610D17B
:106F000081688369CD18A94202D10020E07107E0B1
:106F10004E1C32462068FFF761FE31460028F2D051
:106F200070BD0020FCE7F8B50446FFF7A4FC054659
:106F3000002841D12378032B36D12779012F33D173
:106F400004F14C060146A2893046FFF7A7FB552302
:106F500084F84A32AA2384F84B3252234122722108
:106F600084F84C3084F84D30612384F84E3084F836
:106F70004F2084F8322284F8333284F8301284F8B7
:106F8000311204F50D70E169FFF771FBA16904F599
:106F90000E70FFF76CFBA26B60780132A2643B4677
:106FA0003146FFF717FB2571002211466078FFF785
:106FB0001DFB003018BF0120F8BD2DE9F041002471
:106FC00007688C76036B06460D46002B33D03B7862
:106FD000042B3AD17E6901F11A08402796F8233034
:106FE0009C4201D37CB90BE0FA0608BF0237F319C3
:106FF00000215878F35D43EA0020FFF727FAE0B953
:107000003F23AB7601242C440023A3766B733379A2
:107010002B73DB0616D406F13800FFF7F7FAC5E943
:107020000001727B337B43EA02236B81F27BB37BEB
:1070300043EA02232B81BDE8F081013408F8010BFB
:107040000237CBE700200021E9E7436C013309D088
:1070500001F11A083B6933F8140000284ED12C4482
:107060000023A376716BA87E01F10B0E0C46002362
:107070002E2614F8012B202A24D0052AA4EB010C7B
:1070800008BFE522BCF1090F04D1EF1800B9BE76A4
:107090007E730133EF187A7398B9A2F14108B8F101
:1070A000190F0DD8BCF1090F91F80C8034BF4FF0C7
:1070B000080C4FF0100C18EA0C0F1CBF2032D2B293
:1070C000BA760133A645D4D128B9EA1890760A7B5E
:1070D000002A08BF00232B4400245C73CB7A2B7357
:1070E00001F11C00FFF78AFAC5E9000401F116005E
:1070F000FFF784FA6881000C28819CE70021FFF7E4
:10710000A5F930B10134B4F5807F02D008F8010B45
:10711000A0E70024A3E72DE9F843036B0546884662
:10712000E3B10468876A2278042A0CBF4FF08052CA
:107130004FF400122037BA4210D9A289B7FBF2F6F9
:1071400002FB1672002A50D1C16A0133036339B9B8
:107150002389B3EB571F48D800232B63042009E091
:107160006389013B334240D1FFF735FC01280646D5
:1071700002D80220BDE8F883421C01D10120F9E7C2
:10718000236B83422BD8B8F1000FE5D0E96A28467B
:10719000FFF7BFFD0646002840D00128E9D0431C78
:1071A000ECD0EB7943F00403EB712046FFF763FB6F
:1071B00080460028E2D10146A28904F14C00FFF785
:1071C0006DFA31462046FFF76FFA4FF00109A064CF
:1071D0006389434515D8A36CA3EB0803A364EE624F
:1071E00031462046FFF760FA2863A189AF6204F1B7
:1071F0004C03B7FBF1F201FB12771F446F630020D1
:10720000B8E784F803902046FFF712FB0028B5D1B9
:10721000A36C013308F10108A364D9E70720A9E7AB
:107220002DE9F04105460068296B4669FFF729FB07
:10723000044620B9696B0B78852B03D002242046C5
:10724000BDE8F08120223046FFF7CFFA21462846DC
:107250007778FFF760FF04460028F0D1296B286893
:10726000FFF70FFB04460028E9D1696B0B78C02BB0
:10727000E4D1202207F10108B018023FFFF7B5FA68
:10728000102F25D84FEA4818402700212846FFF73D
:1072900042FF04460028D2D1296B2868FFF7F1FA93
:1072A00004460028CBD1696B0B78C12BC6D1F019ED
:1072B00020222037FFF799FAB845E6D83046FFF785
:1072C00028FAF278B37843EA02239842B7D0B5E7B8
:1072D0000424B4E70B6810B50360CB6983600B6AC4
:1072E000C37123F0FF030361496A416400234361D2
:1072F0000446FFF726FC20B92046BDE81040FFF702
:107300008FBF10BDF8B50E46002104460568FFF793
:1073100018FC00BB0746216B2846FFF7B2FAD0B92C
:107320002A78636B042A1B7807D1DB43C3F3C013AD
:1073300053B10137B74208D1F8BDE52B1ABFB3FAF4
:1073400083F35B090123F3E71F4601212046FFF782
:10735000E2FE0028DFD0042808BF0720ECE703681E
:107360002DE9F0415E6905463046FFF7D2F9B0706D
:10737000000AF070696C77782846FFF7E2FB4FF05F
:10738000010804462CB1022C28BF0224E0B2BDE85B
:10739000F081296B2868FFF774FA04460028F2D1BF
:1073A00020223146686BFFF720FA2B6883F80380B0
:1073B000002FE8D021462846FFF7ADFE20360446D0
:1073C000013FDFE72DE9F84FFF270668DFF834813A
:1073D00005463C464FF0040A4FF6FF79296B21B968
:1073E000BAF1000F00F0838072E03046FFF749FAEF
:1073F000824600286CD1686B0378002B7ED03278EF
:10740000042A11D1852B5CD1AB6A6B642846FFF747
:1074100007FF824600285BD173691B7903F03F03A5
:10742000AB715046BDE8F88FC27AE52B02F03F02FF
:10743000AA7152D02E2B50D022F0200108294CD016
:107440000F2A4FD15A0646D503F0BF04AB6A477BDB
:107450006B64437BBB4240D1C27E837E43EA0223FE
:107460001BB2002B39D10278316902F03F02013A98
:107470004FF00D0C0CFB02FC4FF0010E13F808A0AE
:1074800000EB0A0292F801B010F80A2042EA0B223F
:10749000BEF1000F23D0BCF1FE0F1ED821F81C2036
:1074A00096460CF1010C01330D2BE7D103785B06F6
:1074B00005D5BCF1FE0F10D8002321F81C30013C8B
:1074C000E4B200212846FFF726FE8246002885D038
:1074D00000232B63A5E7A342BBD0FF24F1E74A4575
:1074E000E1D0FAE734B9FFF705F9B84202D14FF01D
:1074F000000A96E74FF0FF336B6492E74FF0040AFF
:10750000E6E700BF2F4201002DE9F04F002185B0D2
:107510000546D0F80080FFF714FB8246002840F0B3
:10752000DB8098F80030042B39D1D8F81000FFF731
:1075300044F907462846FFF745FF08B18246CBE0ED
:10754000D8F8143093F8251093F8242042EA012249
:107550009742EFD193F82390044640264C4506D13C
:10756000D8F8103033F81430002BE3D1B4E0F10632
:10757000D8F8143008BF02369A199B5D507843EA58
:107580000020FEF781FFD8F81030834633F814004E
:10759000FEF77AFF8345CDD102360134DEE74FF0A6
:1075A000FF334FF0FF0B6B645E46296B4046FFF7DD
:1075B00068F90028C2D16C6B2778002F00F090800A
:1075C000E27AE52F02F03F03AB7103D0120705D535
:1075D0000F2B05D04FF0FF336B645AE00F2B5FD1B8
:1075E00095F8433058064BD4790650D5AB6A94F8D9
:1075F0000DB06B6407F0BF07637B5B4549D1E37E49
:10760000A67E46EA032636B2002E42D194F80090B8
:10761000D8F81030009309F03F0909F1FF334FF01B
:107620000D0909FB03F901212F4BF25CA318A25CA1
:107630005B7842EA032371B3B9F1FE0F29D81846EB
:107640000393FEF721FF009B029009F1010233F83A
:1076500019000192FEF718FF0299814219D1039B8C
:10766000019A1946914601360D2EDDD123785A062E
:1076700004D519B1009B33F8193053B9013FFEB25C
:1076800000212846FFF747FD00288ED056E7BE426E
:10769000B2D0FF26F4E74FF6FF729342E3D0F8E74B
:1076A00026B92046FFF726F8584515D095F84330FF
:1076B000DB078FD405F1380204F10B0114F8013B0C
:1076C00012F8010B8C42A3EB000302D0002BF5D083
:1076D00080E7002B7FF47EAF504605B0BDE8F08F09
:1076E0004FF0040AF8E700BF2F4201002DE9F04FE8
:1076F00090F8434014F0A00499B0054640F0FA8099
:107700000668326932F81430002B53D13378042BD9
:1077100040F082800F230E342846B4FBF3F4A11C02
:10772000FFF7F0FD8246002840D1AB6A04F1006407
:107730000134A3EB4414AB686C64002B3CD1D6E954
:107740000454402200212046FEF7A8FF8523237021
:10775000C02384F820302846FFF72FF8012184F851
:1077600024000022000A84F8250040230846C1278F
:1077700094465E1CE75404F806C0023321B135F884
:10778000121009B10132D2B2E618E1544FEA112EBB
:10779000023386F801E0DE06F0D135F812600130E0
:1077A000C0B2002EE5D184F823206070504619B095
:1077B000BDE8F08F0134A5E7EB795F07BFD503F093
:1077C0000303EB71D5E904237089B189E1FB002340
:1077D000C5E904232846FFF78EFBD8B9294604A83B
:1077E000FFF778FDB0B97069D5E904233830FEF7AA
:1077F00046FF7069D5E904232830FEF740FFEB7996
:10780000726943F0010382F8213004A8FFF7A7FD55
:10781000002894D08246C9E705F138070C22394682
:1078200004A8FEF7E2FF9DF81B30DB076CD5402370
:10783000DFF8EC8185F843304FF001090B2204A9F1
:107840003846D6F810A0FEF7D0FFB9F1050F4DD994
:10785000AAF102014B4631F8022F002A37D1072244
:1078600003F00F0000F13001392988BF00F1370122
:10787000013A02A810441B094170F1D118A9114422
:107880007E2001F8580C934204D0F95C202903F1C2
:1078900001002DD13B44072A9BBF18A9891820213C
:1078A00011F8581C03F8011BA3EB070198BF013224
:1078B0000729F0D92846FFF727FE8246E8B909F1E3
:1078C0000109B9F1640FB9D14FF0070A6EE7102032
:1078D00002F0010C0CEB430313F4803F18BF83EA62
:1078E000080301384FEA5202F2D1B4E74B46B6E73B
:1078F0000346C8E74FF0060A58E704287FF456AF5E
:107900009DF81B3085F843309DF81B309B0745BF21
:107910000C340D230124B4FBF3F448BF0134214699
:107920002846FFF7EFFC824600287FF43FAF013C7A
:1079300058D0A96A2846A1EB4411FFF702F9824604
:1079400000287FF433AF3846FEF7D4FE4FF6FF79B8
:107950008046296B3046FEF794FF824600287FF46C
:1079600025AF6B6BD6F810E083F80D800F22E1B2E3
:107970004FF00D0CDA724A1E0CFB02F21873987667
:10798000D8760192844648451FBF019A3EF81200FE
:1079900001320192214A1CF802A00CF1010C03EB08
:1079A0000A0B03F80A004FEA102A002808BF4846CD
:1079B000BCF10D0F8BF801A0E5D1484503D0019A29
:1079C0003EF812200AB941F0400119700123F3700A
:1079D00000212846FFF79FFB824600287FF4E6AE91
:1079E000013CB6D1296B3046FEF74BFF824600289A
:1079F0007FF4DCAE01462022686BFEF74FFE0B22BF
:107A00003946686BFEF7F1FE95F843306A6B03F078
:107A1000180313730123F370C8E600BF2F4201005F
:107A200021100100002310B5C3704FF0FF338364B1
:107A30000446FEF726FF002837D194F84B2294F82D
:107A40004A3243EA02234AF6552293422FD194F850
:107A50004C30E92B05D0E36C174A03F0FF13934237
:107A60000FD104F18200FEF7C9FD144B20F07F40D6
:107A700098421ED004F19E00FEF7C0FD104B9842C4
:107A800017D010494C34002214F8013B505C0A2AEC
:107A9000A3EB000304D00132002BF5D0022010BD6F
:107AA000002B14BF02200120F9E70420F7E7032090
:107AB000F5E70020F3E700BFEB00900046415400DB
:107AC000464154333C4201002DE9F04F002385B07C
:107AD0000B600F461546FEF735FE061EC0F2E1812B
:107AE000804B53F82640002C00F0DD813C60237869
:107AF00005F0FE0573B16078FEF758FDC10709D4A3
:107B0000002D00F0D28110F0040000D00A2005B052
:107B1000BDE8F08F0023F0B223706070FEF73EFDE9
:107B2000C20700F1C4810DB14307EFD404F10C0288
:107B300002216078FEF75AFD08B10120E7E7A0892D
:107B4000A0F50073B3F5606FF7D8451E0540F4D17A
:107B500029462046FFF766FF022840F0AF8004F276
:107B6000122111F8040C10B10846FEF747FD4DF83C
:107B700025000135042D01F11001F2D100265DF838
:107B80002650002D00F0928029462046FFF74AFF3C
:107B9000012800F28C80012840F0AA8004F15703EC
:107BA00004F18C0113F8012B002A40F08D808B42E8
:107BB000F8D194F8B52094F8B43043EA0223B3F531
:107BC000807F40F0818094F8B82001239340A289FF
:107BD000934279D104F19400FEF718FD461941F162
:107BE0000007012F08BF002E6ED204F1A000FEF79F
:107BF00005FD94F8BA806063B8F1010F84F8028043
:107C000062D194F8B93008FA03F91FFA89F3638155
:107C1000002B59D004F1A800FEF7F0FC324B98423B
:107C2000804651D8831C2363A56304F1A400FEF7AA
:107C3000E5FC2918616404F19C00FEF7DFFC1FFAE3
:107C400089F3284408FB03F8E063084610EB0802B8
:107C50004FF0000141F100039F4208BF964233D329
:107C600004F1AC00FEF7CAFC014620642046FEF792
:107C70001BFD01462046FEF704FE00287FF45DAFA1
:107C8000A589002104F160068D421FD81CD04FF059
:107C9000FF33C4E906330426144A267013880133DF
:107CA0009BB200201380E380206230E7032001367E
:107CB000042E7FF464AF042806D13EE704283FF485
:107CC0003CAF01287FF667AF0D2020E7631893F8DB
:107CD0004C30812B04D17018FEF790FC0228D6D0CE
:107CE0002031D1E74C1D0020FDFFFF7F541D0020F7
:107CF00094F8582094F85730B4F80C8043EA0223E3
:107D00009845E1D194F8633094F8627057EA0327FC
:107D100004D104F17000FEF771FC074694F85CB0E2
:107D200067630BF1FF33012B84F802B0CCD894F8D1
:107D30005960B3B26381002BC6D0731E3342C3D1E6
:107D400094F85E3094F85D904FEA581149EA03299F
:107D5000B9FBF1FA01FB1A9189B2A4F80890002945
:107D6000B2D194F8601094F85F0050EA012003D17A
:107D700004F16C00FEF742FC94F85B2094F85A3052
:107D800053EA0223A0D007FB0BFC0AEB0302624478
:107D9000904299D3811AB1FBF6F1002994D04FF6A5
:107DA000F576B14294BF0226032640F6F570814273
:107DB00098BF01262B4402312A44032E2163A56378
:107DC000E36362645AD194F8772094F8763053EAEA
:107DD00002237FF479AFB9F1000F7FF475AF04F19E
:107DE0007800FEF70BFC2064890008F1FF3319448A
:107DF000B1FBF8F8B8453FF667AF4FF0FF33C4E981
:107E00000633032E4FF0800323717FF445AF94F8BF
:107E10007D2094F87C3043EA0223012B7FF43CAFB1
:107E2000691C2046FEF72DFD00287FF435AF94F83D
:107E30004B2294F84A32207143EA02234AF6552233
:107E400093427FF429AF04F14C00FEF7D7FB194BA6
:107E500098427FF421AF04F50C70FEF7CFFB164B70
:107E600098427FF419AF04F50D70FEF7C7FBE0618F
:107E700004F50E70FEF7C2FBA0610DE7B9F1000F2B
:107E80003FF422AF022E4FEA410018BF401863446E
:107E900018BF01F0010123640CBF014601EB500142
:107EA000A3E70B2033E60C2031E628462FE603201B
:107EB0002DE600BF52526141727241612DE9F04FCF
:107EC0000B78D0F800902F2B97B00446884601D04D
:107ED0005C2B0AD1424613782F2B904602F1010207
:107EE000F9D05C2BF7D0002301E0D9F82030A36053
:107EF00099F80030042B1DD1A368DBB1D9F82430E8
:107F0000E361D9F828302362D9F82C306362214626
:107F100002A8FFF7DFF90146C0B9D9F8145005F1FE
:107F20003800FEF76BFBC4E9040195F8213003F03B
:107F30000203E37198F800301F2B00F2F0808023D9
:107F400084F8433000212046FEF7FBFD17B0BDE862
:107F5000F08FB5F5807F0BD00121FEF777FA38B1AD
:107F60007F2807D8A54A12F8013F1BB18342FAD1F6
:107F70000620EBE727F8020F2E46D8E0022E04D1A8
:107F8000BAF802302E2B00F0EF800AEB460376BBE6
:107F900000270AEB46032AF81670002EE8D02021AD
:107FA0000B2204F13800FEF779FB39463AF811202C
:107FB000202A24D02E2A22D009B145F0030533F817
:107FC000022D2E2A01D0013EF9D100234FF0080BDB
:107FD0001F463AF811004A1C10B3202803D02E285F
:107FE0000FD1B24211D045F003051146F1E733F845
:107FF000022D202A01D02E2ACAD1013EC7E7013125
:10800000D4E75B4505D2B2423AD1BBF10B0F30D178
:1080100002E0BBF10B0F27D145F003054FF00B0B2E
:1080200094F83830E52B04BF052384F83830BBF1D1
:10803000080F04BFBF00FFB207F00C030C2B03D0E6
:1080400007F00302032A01D145F00205A80700F159
:10805000A08007F00307012F08BF45F01005042B8F
:1080600008BF45F0080594E0B24202D045F0030590
:10807000D6D8BF00FFB232464FF00B0B0823B4E74F
:108080007F280ED90021CDE90023FEF7DFF945F066
:108090000205DDE9002368B15949084410F8800C55
:1080A00040B1DFF860C11CF8011F002900F0988082
:1080B0008142F8D145F003055F20E118013381F8D2
:1080C000380092E747F00207F7E7002A08BF0520CB
:1080D0003CE75A073FF53AAFA379DB067ED599F81E
:1080E000000004286CD1A368E3612369E279D9F820
:1080F000141023F0FF0313432362636C636201F1E6
:108100003400FEF77BFAA06091F8213003F00203FF
:10811000E37101F13800FEF779FAC4E9040123683C
:10812000D3F810A008F1FF3BAAF1020700261BF8C4
:10813000010F1F2806F101050ED92F2802D05C2857
:108140007FF407AF08EB0503A3EB080513F8012B39
:108150002F2AF9D05C2AF7D01F28A8448CBF00250D
:108160000425012E7FF40AAFBAF800302E2B7FF4DD
:108170000CAF00232AF8163004F138029E4294BF57
:1081800020212E2101330B2B02F8011BF6D145F0E3
:10819000200584F843502046FFF7B6F994F84330A1
:1081A000002896D004287FF4D1AE990603F004028B
:1081B0008BD5002AB3D0802384F843300020C5E655
:1081C000B9F80C20A56AB5FBF2F309F14C0102FBEA
:1081D00013531944FEF712FBA060A0E70520B5E693
:1081E000A0F1410119297FF66DAFA0F161011929B4
:1081F0009EBF203847F0010780B25EE7474201008A
:10820000AF410100504201001FB5CDE9001004A8A4
:10821000144640F8041DFEF795FA011E15DB0D4BC0
:1082200053F8210008B100220270019808B1002221
:10823000027043F8210030B1012C08D1002201A9BD
:108240006846FFF741FC04B010BD0B20FBE700209F
:10825000F9E700BF4C1D00202DE9F04FADF2C44DF1
:10826000154601910446002800F0888102F03F077E
:108270003A4603A901A8FFF727FC8046002840F0F2
:108280000481039B0199049318AA1A6198AA5A6160
:1082900004A8FFF713FE20B99DF95330002BB8BF97
:1082A000062015F01C0F00F03981002800F0F58041
:1082B000042840F0EA8004A8FFF718FA002840F0EC
:1082C000E48047F008073B076AD5039D2B78042B11
:1082D00040F0ED806E69256006F13400FEF78EF9FE
:1082E000A06006F13800FEF791F9C4E9040196F8A0
:1082F000213003F00203E371212000234C2133726B
:108300007372B072F1726A6913756A691373537389
:108310009073D1736A6953756A69202111716A6912
:1083200082F8343082F8353082F8363082F83730CF
:108330006A6982F8383082F8393082F83A3082F847
:108340003B3082F83C3082F83D3082F83E3082F893
:108350003F306A6982F8283082F8293082F82A3062
:1083600082F82B3082F82C3082F82D3082F82E30B3
:1083700082F82F306B69012283F8212004A8FEF7D0
:10838000EEFF002840F08180A16849B102462046F6
:10839000FEF746FDA368039A013B9361002874D160
:1083A000039D119EAB6C236466642878390748BF2F
:1083B00047F04007042840F0BF806E6906F13400A2
:1083C000FEF71CF9A06006F13800FEF71FF9C4E9BA
:1083D000040196F821309DF8172003F00203E371A1
:1083E000069BE361089B23F0FF0313432362159B65
:1083F0006362EB88A38000210022002304F14C0972
:10840000C4E90C23A1644FF48052256084F82870DD
:1084100084F82910E1634846FEF740F9BA0637D5DB
:10842000D4E9046756EA070332D0039BA5685A894A
:10843000B3F80CA0C4E90C670AFB02FA4FF0000B7A
:10844000BB4508BFB245C0F083800020A563E0B9FA
:10845000DDF80CA03046BAF80C200023394606F0AF
:108460003DFC1343064613D029465046FEF71CF93F
:10847000002800F081808219E263012349469AF8BE
:108480000100FEF79BF818B101200023236080460D
:1084900040460DF2C44DBDE8F08F9DF8163013F044
:1084A000110F47D16A077FF50EAF0820EDE7119B4A
:1084B000002621214C2219745A749E73DE73119B7D
:1084C00019765A769E75DE75119B2022DA72DDF8D8
:1084D00044A028785146FEF791F932468146284655
:1084E000FEF79AF9119B1E775E779E77DE77039BE6
:1084F0000122DA70B9F1000F3FF452AF324649461B
:1085000004A89D6CFEF78CFC0028BED12946039878
:10851000FEF7B7F9039A09F1FF333EE70028B4D11B
:108520009DF81630DE0625D4AD077FF539AFD807A4
:108530007FF536AF0720A8E73146FEF75FF9A06068
:1085400006F11C00FEF75AF800232061636150E732
:1085500029462046FEF73FFAB6EB0A0667EB0B0703
:108560000128054604D9431C7FF46AAF01206DE75A
:1085700002206BE7042088E7022086E74FF0090815
:1085800086E72DE9F04F85B016460193019A002346
:108590000F46136003A90446FEF7F4F805460028C9
:1085A00036D194F829509DBB94F82830DA0740F171
:1085B000C780D4E90C01D4E90423121A63EB010348
:1085C00000218B4208BFB24204F14C0338BF16466B
:1085D0000093EEB1D4E90C89DDF80CA00023BAF8C1
:1085E0000C204046494606F079FB134340F08E804C
:1085F000BAF80AA00AF1FF3A1AEA000A1ED158EAAC
:10860000090309D1A068012813D8022584F829504C
:10861000284605B0BDE8F08FA36C2BB142464B460F
:108620002046FEF74CF8EEE7A16B2046FEF7D3F9A3
:10863000E9E7431C01D10125E8E7A063DDF80CB0B0
:10864000A16B5846FEF730F80028DED0BBF80C903E
:10865000B6FBF9F90AEB0008B9F1000F36D0BBF808
:108660000A309BF801000AEB09029A4288BFA3EB8B
:108670000A094B4642463946FDF7A0FF0028DAD1E9
:1086800094F92830002B0CDAE06BA0EB0800484589
:1086900007D2039B9A8922B1009902FB0070FEF772
:1086A000A4F8039B9B8909FB03F9D4E90C2312EB83
:1086B000090043F10001019B019A1B684B44C4E986
:1086C0000C014F441360A6EB090682E7E26B4245BA
:1086D0001AD094F92830002B0DDA012300999BF869
:1086E0000100FDF777FF0028A5D194F8283003F0AA
:1086F0007F0384F82830039800994078012342468C
:10870000FDF75CFF002896D1C4F83C80039BD4E9B8
:108710000C019A89B0FBF2F902FB1909A2EB0909D5
:10872000B14528BFB146B9F1000FBED0002306F015
:10873000D5FA009B384699184A46FEF756F8B4E732
:10874000072565E72DE9F04F85B092460193019A20
:1087500000238B46136003A90446FEF713F8054671
:1087600018BB94F8295005BB94F828309A0740F1BB
:10877000E480039B1B78042B05D0236B13EB0A0FBB
:1087800001D36FEA030A04F14C03009382E0A36C67
:108790007BB142464B462046FDF791FF58B994F80D
:1087A000283043F0400384F82830284605B0BDE85F
:1087B000F08FA16B89E0012803D1022584F82950AC
:1087C000F3E7431C01D10125F8E7A368A06303B9CF
:1087D000A06094F92830002B0EDA0398E26B009920
:1087E00040780123FDF7F6FE0028ECD194F82830FC
:1087F00003F07F0384F82830DDF80C90A16B484625
:10880000FDF752FF0028D8D0B9F80C60BAFBF6F695
:1088100007EB0008002E5CD0B9F80A3099F8010087
:10882000BA199A4288BFDE1B334642465946FDF7C5
:10883000D1FE0028C7D1E16BA1EB0801B1420DD2F6
:10884000039B9A8922B102FB01B10098FDF7CDFF8D
:1088500094F8283003F07F0384F82830039B9B8929
:108860005E43D4E90C23D4E90401971943F10008CD
:10887000019B019A1B68414508BFB8423CBF38467E
:1088800041463344C4E90C78C4E90401B34413609D
:10889000AAEB060ABAF1000F81D0D4E90C89039E35
:1088A0000023B2894046494606F018FA134327D1FF
:1088B0007789013F07408CD158EA09037FF467AFFD
:1088C000A06800287FF477AF01462046FEF721FA22
:1088D00064E7E36B434511D0D4E90423D4E90C6782
:1088E0009F4208BF964209D201234246009999F857
:1088F0000100FDF763FE00287FF465AFC4F83C80FB
:10890000039BD4E90C019A89B0FBF2F602FB160630
:10891000961B564528BF564646B1002306F0DEF9A1
:10892000009B594698183246FDF75FFF94F82830AF
:1089300063F07F0384F8283093E7072535E770B5A7
:10894000ADF5976D01A90546FDF71CFF044600280B
:1089500068D195F828305A0664D51B060FD50198C2
:10896000EA6B4078012305F14C01FDF733FE002846
:108970007DD195F8283003F07F0385F828300198E1
:108980000378042B52D12846FEF7B5FA0446002896
:1089900048D1019B16AA1A6196AA5A61294602A8D3
:1089A000FEF798FC044600283CD1019B59690A79DE
:1089B00042F020020A71EA79596942F0010281F815
:1089C00021205869A9683430FDF751FE019B586990
:1089D000D5E904233830FDF752FE019B5869D5E9EB
:1089E00004232830FDF74BFE019A53692121997326
:1089F0004C211C735C73D97353695C75536902A86D
:108A00001C745C749C74DC74FEF7A9FC044648B9C1
:108A10000198FEF788FA95F8283023F040030446C1
:108A200085F8283020460DF5976D70BD296CFDF74F
:108A300028FF04460028F5D16E6CF37A43F020033A
:108A4000F372AA6828683146FDF7E6FE06F11C00BD
:108A50002969FDF70CFE212333760198B4754C2368
:108A600073760123F475B474F474C370D1E70124F0
:108A7000D8E713B50446FFF762FF28B901A92046DD
:108A8000FDF780FE00B9206002B010BD2DE9F04F67
:108A900087B005A9044692469B46FDF773FE06463D
:108AA00008BB94F82960F6B9A36C002B00F09680FF
:108AB000BBF1FF3F08BFBAF1FF3F38D1A768D3F839
:108AC00000A003F10409022547B34FF0000807EBAB
:108AD00008012046FDF77FFF012808F1010808D8AA
:108AE000022684F82960304607B0BDE8F08F0746BB
:108AF000EBE7431C01D10126F3E707EB080398429B
:108B0000E5D00235AA4521BF4B4643F8088BC9F88A
:108B100004709946059B1B6B8342E8D8A36C5545AE
:108B20001D6000F264810023C9F80030DBE7D4E95E
:108B30000489CB4508BFC2453CBFD046D94658EA58
:108B40000903C4E90C89CED018F1FF3249F1FF3393
:108B50002046CDE90223FDF7B2FD059DA063014645
:108B60002846FDF7A1FD00900028B9D0B5F80CA06B
:108B70004FF0000B52465B464046494606F0AEF8C1
:108B80001343B0D052465B46DDE9020106F0A6F879
:108B90006F89009BE26B013F07401F44BA42A2D09D
:108BA00094F92830002B04F14C080CDA01234146DB
:108BB0006878FDF70FFD00289DD194F8283003F068
:108BC0007F0384F82830059801233A4641464078CF
:108BD000FDF7F4FC00288ED1E76384E7059D2B7830
:108BE000042B08D000235B454FF0FF3208BF5245ED
:108BF0003CBF92469B46D4E904235B4508BF5245DF
:108C000005D294F8281088075CBF92469B46002145
:108C10000020D4E90C23C4E90C015AEA0B0143D12A
:108C200050465946002510E00025D4E90C01D4E94E
:108C300004238B4208BF824207D294F82830C4E94B
:108C4000040143F0400384F82830DDF81480002349
:108C5000B8F80C2006F042F813433FF444AFE26B3F
:108C6000AA423FF440AF94F92830002B04F14C079E
:108C70000EDA0123394698F80100FDF7ABFC002815
:108C80007FF439AF94F8283003F07F0384F828305C
:108C9000059801232A4639464078FDF78FFC0028C5
:108CA0007FF429AFE5631EE76989B5F80C8008FBFE
:108CB00001F852EA03014FD012F1FF3043F1FF31C6
:108CC000CDE900011AF1FF304BF1FF31424600239C
:108CD00006F004F84246CDE902010023DDE9000177
:108CE00005F0FCFFDDE902238B4208BF824233D34B
:108CF000DDE9002308F1FF3122EA0102C4E90C2377
:108D0000BAEB020AA56B6BEB030B002D8CD04FF076
:108D10000009D94508BFD045D4E90C012CD3D4E9CA
:108D20000C23059F12EB0A0043EB0B01C4E90C0175
:108D3000BA8900235046594605F0D0FF13438046B8
:108D40003FF472AF29463846FDF7AEFC00283FF4E9
:108D5000C7AE00EB080568E7A5685DB9294620465F
:108D6000FDF7D7FF012805463FF4BAAE411C3FF49A
:108D7000C2AEA060A563C8E7BAEB080A6BEB090BAB
:108D800094F8287010EB080241EB09031046C4E97F
:108D90000C23BA07194618D5D4E904238B4208BF1F
:108DA000824207D202460B46C4E9042347F040073B
:108DB00084F8287029462046FDF7ABFF054648B9E0
:108DC0004FF0000A4FF0000BA9E729462046FDF7B7
:108DD00002FE05466B1C3FF48EAE012D7FF680AE81
:108DE000059B1B6BAB427FF67BAEA56391E711261B
:108DF00079E630B5ADF2744D0446019100284ED0AD
:108E0000002203A901A8FEF75FFE98B9039B236027
:108E100004AA1A6184AA5A6101992046FFF74EF804
:108E200000283ED194F94330002B25DBA379DB06E3
:108E300003D405200023236029E0039A1078042836
:108E400028D1A368E3612369E179556923F0FF0321
:108E50000B432362636C636205F13400FDF7CEFBC4
:108E6000A06005F13800FDF7D1FBC4E9040195F8D5
:108E7000213003F00203E371039BDB88A380002110
:108E80002046FDF75EFE0428D3D00028D2D10DF293
:108E9000744D30BD616BFDF7B1FCA060ECE70920BB
:108EA000F5E70428C5D0C5E713B501A90446FDF7C9
:108EB00069FC00B9206002B010BD30B5ADF2BC4D08
:108EC0000D460190002202A901A8FEF7FDFD04460F
:108ED00098B9029B019916AA1A6196AA5A6102A82A
:108EE000FEF7ECFF044640B99DF94B30002B08DB40
:108EF0001DB1294602A8FEF760F820460DF2BC4DD0
:108F000030BD0624F9E710B50446006808B104F046
:108F10001BFE204610BD0000F8B5114C00231C209C
:108F2000C4E90033A36004F00DFE0E4A206000F196
:108F30001C06A660034602F11807154603CDBD4284
:108F4000186059602A4603F10803F6D128681860B2
:108F5000054A666005490248BDE8F84005F0B2B927
:108F6000581D00205842010000000020078F00001B
:108F70000160704770470068FCF70ABA0068FCF7A8
:108F80005DBA0068FCF75DBA82B06B4683E8060004
:108F900093E80600006802B0FCF722BA0068FCF70C
:108FA0003DBA38B504460D464620002105F032F89A
:108FB00029462046BDE83840FFF7E0BF38B50446F3
:108FC0000D464620012105F025F829462046BDE83A
:108FD0003840FFF7D3BF7047B0F960007047B0F971
:108FE0006400704737B5056890F824400094AC6A77
:108FF000A04703B030BD00002DE9F04F85B0054615
:109000000846DDE90E181C46174601238A1A002A75
:1090100085F87F30A4EB0003B8BF5242002BB8BFE5
:109020005B429A4205DC0E46214634463E460746E0
:1090300030468F4205DC2646044630460E46394609
:109040003746061B002EB8BF7642A7EB010A8442C2
:10905000B4BF01204FF0FF309A42039602904FEACE
:109060006A0689464FF000033EDDB94520DC039ACD
:10907000B61A03F101030FD5012B56442A680ED10D
:10908000D2F810B043460A4628462146D847029BEC
:1090900009F101011C44002309F10109E5E7CDF8BC
:1090A0000080D2F81CB028460A462146D847EEE791
:1090B0003BB12A68CDF80080D6690A462146284689
:1090C000B047002385F87F3095F87E30002B34D1EF
:1090D000012185F87E10452004F09CFF184805B05A
:1090E000BDE8F04FFFF75ABFB9451EDC039AB61A28
:1090F00003F101030ED5012B56442A680DD1D2F895
:1091000010B0434622462846D847029B09F1010188
:109110001C44002309F10109E6E7CDF80080D2F8EC
:1091200020B028462246D847EFE7002BC9D02A684E
:10913000CDF80080166A2246C1E705B0BDE8F08F81
:10914000641D00202DE9F3410E1E04461546984685
:10915000C0F29080002AC0F28D80036EB34240F3CB
:109160008980436E934240F3858090F87E3093B1BE
:109170000027424B00938DF805708DF8047002AB08
:1091800080F87E7013E906003D48FFF7FDFE394682
:10919000452004F03FFF0021452004F03BFF002163
:1091A000462004F037FFE36E9E4220D02A21344847
:1091B000FFF7F7FE46EA06470121462004F02AFFA2
:1091C000390E2F48FFF7DAFEC7F307412C48FFF7A7
:1091D000D5FEC7F307212A48FFF7D0FEF1B2284891
:1091E000FFF7CCFE0021462004F014FFE666A36ED4
:1091F0009D4220D02B212248FFF7D3FE45EA0546A9
:109200000121462004F006FF310E1D48FFF7B6FE8F
:10921000C6F307411A48FFF7B1FEC6F30721184805
:10922000FFF7ACFEE9B21648FFF7A8FE0021462082
:1092300004F0F0FEA5662C211148FFF7B2FE0121D3
:10924000462004F0E7FE1FFA88F10D48FFF799FE6B
:1092500094F87F3073B994F87E305BB9012184F8BB
:109260007E10452004F0D6FE054802B0BDE8F0416E
:10927000FFF794BE02B0BDE8F08100BF80F0FA02B3
:10928000641D00202DE9F041374B036004460025A2
:109290004FF6FF768846174629460E22456080F82D
:1092A0002C5080F8315080F83250C6648C3005F074
:1092B00041FFC4E92755C4E92955C4E92B55C4F831
:1092C000B45084F8B85004F1BC00FCF7AFFF274B52
:1092D000C4F8DC3184F8E0510121452004F09AFE05
:1092E0000121452004F052FE0121462004F092FEA7
:1092F0000121462004F04AFE0121472004F08AFEA5
:109300000121472004F042FE012384F87B3084F8D9
:109310007E3084F8803084F8813084F8823040F2E6
:109320000113C4E9093548F2D613C4F86080C4F8C3
:1093300058806766E76584F87A5084F87C5084F832
:109340007D5084F87F50C4E91A66C4E90255C4E927
:109350000456C4E906562562C4E90F55C4E91155FF
:1093600063672046BDE8F08178730100E40B0020BC
:1093700073B590F87E3004460E4693B100252E4B0F
:1093800000938DF805508DF8045002AB80F87E50A4
:1093900013E906002948FFF7F7FD2946452004F0A8
:1093A00039FE0021452006F0070604F033FE84F85C
:1093B000276036212148FFF7F4FD94F82730072B6A
:1093C0000DD8DFE803F004242C2E30323436482147
:1093D0001A48FFF7F3FDA36D2366E36D63660A2069
:1093E00004F056FB94F87F305BB994F87E3043B9B3
:1093F0000121452084F87E1004F00CFE0F48FFF791
:10940000CDFD4FF6FF73C4E91A3302B070BD2821B9
:109410000A48FFF7D3FDE36D2366A36DDEE78821DD
:10942000D6E7E821F4E7C821D2E76821F0E7082170
:10943000CEE7A821ECE700BF80F0FA02641D00200F
:1094400073B590F8803004464BB30125CC48002614
:10945000FFF791FD2946452084F87F6084F87E500F
:1094600004F0D8FD2946452004F090FD2946462009
:1094700004F0D0FD2946462004F088FD94F87F30A2
:1094800084F880605BB994F87E305BB9452084F83D
:109490007E50294604F0BEFDB948FFF77FFD94F8E1
:1094A0007E3093B10025B74B00938DF805508DF8B1
:1094B000045002AB13E90600B14884F87E50FFF770
:1094C00063FD2946452004F0A5FD0021452004F058
:1094D000A1FD0121472004F09DFD052004F0E6FADE
:1094E0000021472004F096FD142004F0DFFA01214A
:1094F000472004F08FFD94F87F305BB994F87E30FC
:1095000043B90121452084F87E1004F083FD9C4876
:10951000FFF744FD962004F0C9FA94F87E3093B129
:109520000025984B00938DF805508DF8045002AB40
:1095300013E90600924884F87E50FFF725FD29467E
:10954000452004F067FD0021452004F063FDEF2174
:109550008B48FFF726FD03218948FFF72FFD802167
:109560008748FFF72BFD02218548FFF727FDCF2114
:109570008348FFF716FD00218148FFF71FFDC12139
:109580007F48FFF71BFD30217D48FFF717FDED21D8
:109590007B48FFF706FD64217948FFF70FFD0321A3
:1095A0007748FFF70BFD12217548FFF707FD812172
:1095B0007348FFF703FDE8217148FFF7F2FC8521AE
:1095C0006F48FFF7FBFC00216D48FFF7F7FC78219F
:1095D0006B48FFF7F3FCCB216948FFF7E2FC392128
:1095E0006748FFF7EBFC2C216548FFF7E7FC0021FB
:1095F0006348FFF7E3FC34216148FFF7DFFC0221F9
:109600005F48FFF7DBFCF7215D48FFF7CAFC20212C
:109610005B48FFF7D3FCEA215948FFF7C2FC002161
:109620005748FFF7CBFC00215548FFF7C7FCC02186
:109630005348FFF7B6FC23215148FFF7BFFCC12177
:109640004F48FFF7AEFC10214D48FFF7B7FCC5218E
:109650004B48FFF7A6FC3E214948FFF7AFFC282105
:109660004748FFF7ABFCC7214548FFF79AFC862126
:109670004348FFF7A3FC36214148FFF792FC4821FD
:109680003F48FFF79BFC3A213D48FFF78AFC5521F4
:109690003B48FFF793FCB1213948FFF782FC0021DA
:1096A0003748FFF78BFC13213548FFF787FCB621BD
:1096B0003348FFF776FC08213148FFF77FFC822111
:1096C0002F48FFF77BFC27212D48FFF777FCF2217D
:1096D0002B48FFF766FC00212948FFF76FFC262185
:1096E0002748FFF75EFC01212548FFF767FCE021D2
:1096F0002348FFF756FC0F212148FFF75FFC31217B
:109700001F48FFF75BFC2B211D48FFF757FC0C217E
:109710001B48FFF753FC0E211948FFF74FFC0821A7
:109720001748FFF74BFC4E211548FFF747FCF12186
:109730001348FFF743FC37211148FFF73FFC07218F
:109740000F48FFF73BFC10210D48FFF737FC0321C2
:109750000B48FFF733FC0E210948FFF72FFC0921C6
:109760000748FFF72BFC00210548FFF727FCE12104
:109770000348FFF716FC00210148FFF71FFC03E038
:10978000641D002080F0FA020E214548FFF716FC08
:1097900014214348FFF712FC03214148FFF70EFC58
:1097A00011213F48FFF70AFC07213D48FFF706FC5F
:1097B00031213B48FFF702FCC1213948FFF7FEFB8E
:1097C00048213748FFF7FAFB08213548FFF7F6FB39
:1097D0000F213348FFF7F2FB0C213148FFF7EEFB76
:1097E00031212F48FFF7EAFB36212D48FFF7E6FB32
:1097F0000F212B48FFF7E2FB11212948FFF7D1FB8E
:1098000094F87F305BB994F87E3043B9012145204C
:1098100084F87E1004F0FEFB2148FFF7BFFB7820A0
:1098200004F044F994F87E3093B100251D4B009369
:109830008DF805508DF8045002AB13E90600184866
:1098400084F87E50FFF7A0FB2946452004F0E2FB98
:109850000021452004F0DEFB29211148FFF7A1FB80
:1098600094F87F305BB994F87E3043B901214520EC
:1098700084F87E1004F0CEFB0948FFF78FFB94F8C4
:1098800027102046FFF774FD0121482004F07EFBDD
:109890000121482002B0BDE8704004F0BBBB00BF0E
:1098A000641D002080F0FA02FFF7CABD13B50268FC
:1098B0000191416E0091546A036E00221146A04747
:1098C00002B010BD2DE9F04F85B0DDE90E784FF004
:1098D000010980F87F90CDF8008006680392D6F8E1
:1098E00020B004460D469A46D847039BCDF8008029
:1098F000DA1923682946D3F820B0013A53462046A6
:10990000D847039E2368CDF800804E44023F294685
:10991000D3F81CB032463B462046D8472368CDF8E2
:10992000008005EB0A013246DD6901393B462046DD
:10993000A847002384F87F3094F87E305BB984F820
:109940007E904946452004F065FB044805B0BDE81B
:10995000F04FFFF723BB05B0BDE8F08F641D00207A
:10996000072905D8002908BF012180F82510704774
:109970000721FAE7C0E905127047000090F8B830F7
:1099800013B1B0F98E007047012990F8253007D146
:10999000D0F8882022B1107B10FB03F000B2704792
:1099A000024A0C2000FB0121087AF5E7E872010069
:1099B00090F82410FFF7E2BF2DE9F0412B4C069FF1
:1099C00098464FF6FF73C0E91A330E464620002131
:1099D000154604F01FFB20462A21FFF7E2FA48EA69
:1099E00006460121462004F015FB310E2046FFF704
:1099F000C5FAC6F307412046FFF7C0FAC6F30721B0
:109A00002046FFF7BBFA5FFA88F12046FFF7B6FA67
:109A10000021462004F0FEFA20462B21FFF7C1FA70
:109A200047EA05450121462004F0F4FA290E2046B4
:109A3000FFF7A4FAC5F307412046FFF79FFAC5F3E5
:109A400007212046FFF79AFAF9B22046FFF796FA67
:109A50000021462004F0DEFA20462C21FFF7A1FA6F
:109A600001214620BDE8F04104F0D4BA641D002075
:109A70002DE9F04F93B01D461C9B04931D9B06934C
:109A8000036E03918B42834614469DF8789040F311
:109A90008481436EA34240F38081062313FB0913A4
:109AA000002B40F37A8104EBC903002B40F375814E
:109AB0001F2D40F27281D0F88880B8F1000F40F07D
:109AC000C380B9F1010F4FEA85066BD1049B069A5A
:109AD000934267D090F87E3010AF83B1B04B1093B3
